:10000000400007002700040C2A007E0C2400000C8E
:100010002000000C27007D0C24000002000F430785
:100020000000120A7E0C2400010C2000010C2700A5
:100030007D0C24000002000F43071F0A050A000080
:100040007D0C24000002010F4307050A270A000067
:100050007E0C2400020C2000020C27007D0C2400E2
:100060000002020F4307050A350A7E0C2400030C28
:100070002000030C27007D0C24000002030F43071F
:100080004F0A420A7E0C2400040C2000040C2700B6
:100090007D0C24000002030F43074F0A350A0000BD
:1000A00000007D0C24000002040F4307420A050AE9
:00000001FF
